:020000040800F2
:10000000C0060020CD010008BF030008BB030008A4
:10001000BD03000887020008450900080000000031
:10002000000000000000000000000000450500087E
:10003000890200080000000061040008F1050008C2
:10004000E7010008E7010008E7010008E7010008F0
:10005000E7010008E7010008E7010008E7010008E0
:10006000E7010008E7010008E7010008E7010008D0
:10007000E7010008E7010008E7010008E7010008C0
:10008000E7010008E7010008E7010008E7010008B0
:10009000E7010008E7010008E7010008E7010008A0
:1000A000E7010008E7010008E7010008E701000890
:1000B000E7010008E7010008E7010008E701000880
:1000C000E7010008E7010008E7010008E701000870
:1000D000E7010008E701000845060008E7010008FD
:1000E000E7010008E7010008E7010008E701000850
:1000F000E7010008E7010008E7010008E701000840
:10010000E7010008E7010008E7010008E70100082F
:10011000E7010008E7010008E7010008E70100081F
:10012000E7010008E7010008E7010008E70100080F
:1001300000F002F800F03AF80AA090E8000C8244BF
:100140008344AAF10107DA4501D100F02FF8AFF29C
:10015000090EBAE80F0013F0010F18BFFB1A43F0A5
:1001600001031847640A0000840A0000103A24BF03
:1001700078C878C1FAD8520724BF30C830C144BF0C
:1001800004680C607047000000230024002500264E
:10019000103A28BF78C1FBD8520728BF30C148BFEA
:1001A0000B6070471FB51FBD10B510BD00F031F8D2
:1001B0001146FFF7F7FF00F0F7FB00F04FF803B42C
:1001C000FFF7F2FF03BC00F057F800000948804732
:1001D00009480047FEE7FEE7FEE7FEE7FEE7FEE729
:1001E000FEE7FEE7FEE7FEE704480549054A064B41
:1001F00070470000F505000831010008C00000202C
:10020000C0060020C0020020C002002070477047D6
:100210007047754600F02CF8AE4605006946534617
:1002200020F00700854618B020B5FFF7DDFFBDE8D8
:1002300020404FF000064FF000074FF000084FF04D
:10024000000B21F00701AC46ACE8C009ACE8C009DE
:10025000ACE8C009ACE8C0098D46704710B504464B
:10026000AFF300802046BDE81040FFF7A8BF0000B4
:10027000004870475C00002001491820ABBEFEE733
:10028000260002007047FEE7704700002DE9F047A6
:100290001B4C202010252080E5700326A6702146E7
:1002A000184800F035F82F022780DFF85C90E570E1
:1002B000A6702146484600F02BF83946484600F023
:1002C00078F8042727801820DFF84080E070214666
:1002D000404600F01DF808202080E7702146404687
:1002E00000F016F86F022780A670E5702146484698
:1002F00000F00EF839464846BDE8F04700F059B81E
:1003000002000020000C01400014014000080140E0
:10031000F0B5CA78002502F00F03D20601D58A781D
:1003200013430A784FF00F0E12F0FF0F4FF0010247
:100330001CD004680F8802FA05F63740B74211D185
:100340004FEA850C0EFA0CF724EA070703FA0CF4BF
:100350003C43CF78282F02D0482F02D002E04661DC
:1003600000E006616D1C082DE4D304600C88FF2CAE
:100370001ED944685FF0000606F1080702FA07F587
:100380000F882F40AF420FD14FEA860C0EFA0CF7C0
:10039000BC4303FA0CF73C43CF78282F00D14561CA
:1003A000CF78482F00D10561761C082EE4D3446035
:1003B000F0BD4161704701617047FEE7FEE770479D
:1003C00008B54FF4E06000F041F826208DF80000F9
:1003D00000208DF801008DF8020001208DF8030047
:1003E000684600F001F808BD70B50F23C4780178A5
:1003F0000122F4B1144C2468457804F4E064C4F597
:10040000E064240AC4F10406E3408478B5401C404B
:100410002C4301F1E021230181F80034007800F041
:100420001F018A404009800000F1E020C0F800214F
:1004300070BD01F01F0082404809800000F1E020FB
:10044000C0F8802170BD00000CED00E002490843B7
:1004500002490860704700000000FA050CED00E05A
:1004600070470000044A0029D16901D0014300E02F
:100470008143D1617047000000100240044A002906
:10048000916901D0014300E0814391617047000010
:100490000010024010B500F0ADF801212D20FFF74B
:1004A000EDFF0121BDE810404804FFF7DBBF00006D
:1004B00030B51F494A6812F00C031E4A03D0042BC2
:1004C00001D0082B21D002604A680F231A4C03EA9E
:1004D0001212A35C0268DA4042604B68072505EA05
:1004E0001323E35C22FA03F383604B6805EAD3230A
:1004F000E35CDA40C2604968032303EA9131231FB9
:10050000595CB2FBF1F1016130BD4A684B6802F4FD
:1005100070124FF0020413F4803F04EB924202D0B9
:100520004B689B0301D5054B00E0024B5A43CAE7D9
:100530000010024000127A003900002000093D003E
:1005400000F0FCB9704700000CB50021264801916D
:100550000091026842F4803202604FF4A0630268A6
:1005600002F400320092019A521C0192009A12B9D0
:10057000019A9A42F3D10268920333D50121009186
:100580001A490A6842F010020A600A6822F003025F
:100590000A600A6842F002020A60416841604168EC
:1005A0004160416841F480614160416821F47C11FF
:1005B0004160416841F4E8114160016841F0807197
:1005C000016001688901FCD5416821F003014160A7
:1005D000416841F0020141604168C1F38101022993
:1005E000FAD10CBD00910CBD001002400020024069
:1005F000704700000F4810B5016841F0010101602B
:1006000041680D4A1140416001680C4A1140016087
:10061000016821F480210160416821F4FE014160FC
:100620004FF41F018160FFF78FFF05494FF0006015
:10063000086010BD001002400000FFF8FFFFF6FE4A
:1006400008ED00E070B51F4C40F22551204600F047
:100650007AF830B3204600F06DF91B49024608785D
:100660001A4B1D18401C08702A700878184410F89E
:10067000020C0D2815D10878184410F8010C0A282E
:100680000FD10022124802E09D5C8554521C0D7867
:10069000AA42F9D30F4B01221A700B780022C254E0
:1006A0000A7040F227752946204600F04CF80028D1
:1006B00006D029462046BDE87040002200F062B80E
:1006C00070BD0000004400403300002034000020D2
:1006D00006000020000000200029818902D041F49A
:1006E000005101E021F4005181817047104910B59B
:1006F0004FF4E1320A6000228A80CA800A818A812E
:100700000C224A8100F056F80A4C012240F2255191
:10071000204600F037F8012240F22771204600F011
:1007200031F82046BDE810400121FFF7D5BF000099
:100730004C000020004400400246002012880A427B
:1007400000D00120704730B501F01F0201240025C0
:10075000C1F3421304FA02F2012B0FD0022B0FD087
:10076000838A4FEA11210088134204FA01F400EA57
:10077000040001D000B10125284630BD8389F0E78F
:10078000038AEEE710B5C1F3421301F01F04012103
:10079000A140012B07D0022B07D01430002A026899
:1007A00005D00A4304E00C30F8E71030F6E78A433E
:1007B000026010BD30B50446008A85B00D464CF687
:1007C000FF710840E98801432182A1894EF6F310A8
:1007D0000140A8882A8910436A890A431043A081EE
:1007E000A08A4FF6FF410840A9890143A1826846CB
:1007F000FFF75EFE1948844201D1039800E0029899
:10080000A189090400EBC00101EB0010296801D5A2
:10081000490000E08900B0FBF1F06422B0FBF2F186
:1008200009010B096FF018056B4300EB8300A389E6
:100830001D044FF0320306D503EBC000B0FBF2F00D
:1008400000F0070005E003EB0010B0FBF2F000F051
:100850000F000843208105B030BD00000038014082
:100860000FB42DE9FF41324E80464FF480550CAC59
:1008700029463046FFF79FFD0FE05C2919D002F1B1
:10088000010225290B9222D04046FFF759FE402154
:100890004046FFF751FF0028F9D00B9A1178002944
:1008A000EBD129463046FFF784FDBDE8FF015DF836
:1008B00014FB521C0B9210786E2803D072280BD1B7
:1008C0000D2100E00A214046FFF73AFE16E01078BD
:1008D000642817D0732802D0521C0B92D7E780CC23
:1008E00009E04046FFF72CFE40214046FFF724FF79
:1008F0000028F9D07F1C39780029F2D10B98401CD0
:100900000B90C4E701CC0A22694600F01DF86F463F
:1009100009E04046FFF714FE40214046FFF70CFF78
:100920000028F9D07F1C39780029F2D1E6E70000D1
:10093000001401408088C0F308007047C1F308012B
:1009400081807047FEE70000F0B500260B46354673
:100950000A2A02D00D701846F0BD00281FD006DA12
:100960004FF02D021A7001F10103C0F1000042F2B4
:1009700010744FF00A0700BF90FBF4F252EA060C25
:1009800006D002F1300603F8016B02FB14000126C9
:1009900094FBF7F4002CEFDC1D700846F0BD30200E
:1009A00018704B1CF8E700000024FFF773FDFFF7F9
:1009B00007FDFFF76BFC264D2846FFF797FE25A1A4
:1009C0002846FFF74DFF31A12846FFF749FF3DA11B
:1009D0002846FFF745FF2DA12846FFF741FF47A115
:1009E0002846FFF73DFF29A12846FFF739FF51A10F
:1009F0002846FFF735FF25A12846FFF731FF5BA109
:100A00002846FFF72DFF67A12846FFF729FF65A1BC
:100A10002846FFF725FF644EDFF8908100273078E5
:100A20000128FCD1377062A12846FFF719FF5E4903
:100A30002846891DFFF714FF4FF0200140461CB1E6
:100A4000FFF7B7FC0024EAE7FFF7B5FC0124E6E76F
:100A5000004400402A2A2A2A28432920434F50597B
:100A60005249474854203230313320B7DCB6B7C73B
:100A7000B6C8EBCABDBFAAB7A2B9A4D7F7CAD220DD
:100A80002A2A2A2A2A2A2A0D0A0000002A2020209F
:100A90002020202020202020202020202020202056
:100AA0002020202020202020202020202020202046
:100AB00020202020202020202020202020202A0D3F
:100AC0000A0000002A202020202020202020B7DC3F
:100AD000B6B7B0E653544D3332BFAAB7A2B0E52043
:100AE00055534152543220CAB5D1E920202020204C
:100AF0002020202020202A0D0A0000002A2020D2B9
:100B0000D4484558C4A3CABDCAE4C8EBD2BBB4AEEE
:100B1000CAFDBEDDA3ACD2D43136BDF8D6C6306432
:100B2000203061D7F7CEAABDE1CAF82020202A0DD7
:100B30000A0000002A2020B7DCB6B753544D3332E8
:100B4000C2DBCCB3A3BA7777772E6F757273746DEF
:100B50002E6E6574202020202020202020202020A0
:100B60002020202020202A0D0A0000002A2A2A2ADC
:100B70002A2A2A2A2A2A2A2A2A2A2A2A2A2A2A2AD5
:100B80002A2A2A2A2A2A2A2A2A2A2A2A2A2A2A2AC5
:100B90002A2A2A2A2A2A2A2A2A2A2A2A2A2A2A0DD2
:100BA0000A0000000D0A000000000020000C0140B7
:100BB0000D0AC4FAB7A2CBCDB5C4D0C5CFA2CEAA78
:100BC0003A200D0A00000000E80B00080000002099
:100BD0004C0000006C010008340C00084C000020A0
:100BE0007406000088010008000000000000555352
:100BF00041525420496E7465727275707420457844
:100C0000616D706C653A2054686973206973205572
:100C100053415254322044454D4F00000002040617
:100C20000800000000010203040102030406070893
:040C300009000000B7
:0400000508000131BD
:00000001FF
